:020000022000DC
:1070000000000420214003006140030063400300AE
:107010006540030067400300694003000000000072
:107020000000000000000000000000009D3F030081
:107030006D40030000000000BD3F030071400300ED
:10704000DD410300734003007340030073400300FD
:107050007340030073400300E11B0300734003000F
:107060007340030073400300734003007340030048
:107070007340030073400300734003007340030038
:1070800073400300ED3C03007340030073400300B2
:107090007340030073400300734003007340030018
:1070A0007340030073400300734003007340030008
:1070B000751803007340030000000000000000008A
:1070C0007340030073400300734003006D440300EA
:1070D000734003007340030073400300C9AF020014
:1070E000734003007340030073400300000000007E
:1070F000000000007340030000000000E5440300AE
:10710000000000000000000000000000000000007F
:10711000000000000000000000000000000000006F
:10712000000000000000000000000000000000005F
:10713000000000000000000000000000000000004F
:10714000000000000000000000000000000000003F
:10715000000000000000000000000000000000002F
:10716000000000000000000000000000000000001F
:10717000000000000000000000000000000000000F
:1071800000000000000000000000000000000000FF
:1071900000000000000000000000000000000000EF
:1071A00000000000000000000000000000000000DF
:1071B00000000000000000000000000000000000CF
:1071C00000000000000000000000000000000000BF
:1071D00000000000000000000000000000000000AF
:1071E000000000000000000000000000000000009F
:1071F000000000000000000000000000000000008F
:10720000F1EE103A43F08073E1EE103A704700BFA0
:1072100010B5054C237833B9044B13B10448AFF3D0
:1072200000800123237010BD1C63002000000000BB
:10723000047C030008B5034B1BB103490348AFF3BB
:10724000008008BD0000000020630020047C0300D3
:10725000154B002B08BF134B9D46A3F5803A002128
:107260008B460F461348144A121A0EF083FB0F4B3D
:10727000002B00D098470E4B002B00D098470020E1
:10728000002104000D000D48002802D00C4809F030
:107290007FFD0EF011FB200029000CF019FF0EF00D
:1072A000F7FA00BF00000800000004200000000002
:1072B000000000001C63002048A10020910D030085
:1072C0000000000040697047807C704781747047FF
:1072D00000207047012070474FF44870704700BF8E
:1072E00010B5034B0360044609F082FE204610BD32
:1072F0003876030010B5054B0360044609F078FEAC
:1073000020460CF013FF204610BD00BF3876030066
:10731000384B1A6802B9704710B53749374A91F9A6
:1073200000400021196082B01B680193019BD36863
:10733000D90146D40BF068FE314BA0FB0301830A50
:1073400043EA81532F49304A0B800023BFF35B8F00
:1073500052E8001F012903D142E800300028F7D18C
:10736000BFF35B8F294A1F2CC2F800333CDD284B4A
:107370009A686ABB002C0DDB630926492033012281
:1073800004F01F0402FA04F441F82340BFF34F8FC6
:10739000BFF36F8F1D4B0022C3F8002500BF00BF55
:1073A00000BF00BF1C4BBFF35B8F53E8002F22F0E0
:1073B000010243E800210029F7D1BFF35B8F02B03F
:1073C00010BD164B1A68D207B4D55B689B09B9E7A4
:1073D000610904F01F0053F821200124844022EAAF
:1073E000040443F82140D5E70D4BE340DB07D1D53A
:1073F000BDE700BF04C10140547E0020F0ED00E075
:1074000040420F00446300204863002000C0014058
:107410002CA1002000E100E0587E0020001000E0D8
:10742000FC06FFBD2DE9F04F012389B0BB48BFF337
:107430005B8F50E8002F002A03D140E80034002C75
:10744000F7D1BFF35B8FF1D14B68B54A1B01002622
:10745000B3F5586F168000F25B81D1F808C0BCF11B
:10746000000F40F355810F68AE4B48F2040248F21A
:107470000E001DE14C7B4D7E4444FF2C28BFFF24B1
:1074800005FB044414F4004F0CBF1546054623F8D1
:10749000305CC4F3072514F4804F05F0200A05F092
:1074A000100905F0080414BF48F20E0B48F2040B53
:1074B00005F0040EBAF1000F14BF82469246B9F1EE
:1074C000000F14BF81469146002C14BF0446144699
:1074D00005F0020823F82CAC05F0010523F82A9CDE
:1074E00023F8284C23F82EBCBEF1000F14BF8646AB
:1074F0009646B8F1000F14BF04461446002D0CBF89
:107500001546054623F8244C23F8225C23F826EC84
:1075100097F80080B8F1000F00F0EC800C7B0D7E36
:107520004444FF2C28BFFF2405FB044414F4004FFF
:107530000CBF1546054623F8205CC4F3072514F458
:10754000804F05F0200A05F0100905F0080414BF6B
:1075500048F20E0B48F2040B05F0040EBAF1000FCE
:1075600014BF82469246B9F1000F14BF814691467E
:10757000002C14BF0446144605F0020823F81CAC86
:1075800005F0010523F81A9C23F8184C23F81EBCBB
:10759000BEF1000F14BF86469646B8F1000F14BF27
:1075A00004461446002D0CBF1546054623F8144C1E
:1075B00023F8125C23F816ECBC78002C00F08C80C9
:1075C0008D7B91F81AE02C44FF2C28BFFF240EFB82
:1075D000044515F4004F0CBF1446044623F8104C24
:1075E000C5F3072415F4804F04F0200A04F01009B5
:1075F00004F0080814BF48F20E0B48F2040B04F024
:107600000405BAF1000F14BF82469246B9F1000F8B
:1076100014BF81469146B8F1000F14BF80469046D2
:1076200004F0020E23F80CAC04F0010423F80A9CC9
:1076300023F8088C23F80EBC002D14BF0546154610
:10764000BEF1000F14BF86469646002C0CBF1446B0
:10765000044623F804EC23F8024C23F8065C4C7C27
:1076600091F80E8091F80CA091F80D9091F912B05C
:1076700091F80FE00D7CA4EB08081836284C81F82F
:107680000E80B6B20CF1FF3C5F44AEEB0A0EA5EBE8
:1076900009052680C1F808C00F6081F80CE04D7321
:1076A000BCF1000F34D0B6F5586F03F130032FD082
:1076B00097F80180B8F1000F7FF4DCAE23F8302C8E
:1076C00023F82E2C23F82C2C23F82A2C23F8282CF2
:1076D000454648F2040E0CE723F8102C23F80E2C34
:1076E00023F80C2C23F80A2C23F8082CA64648F281
:1076F0000405A5E723F8202C23F81E2C23F81C2CC6
:1077000023F81A2C23F8182C454648F2040E44E7B7
:10771000054D064C064E074F18E000BF4863002099
:107720004C6300208063002044630020F0ED00E003
:1077300040420F00001000E03B68D80709D57B6885
:107740002A889B099B1A9BB2092B0ED8E368DB01A0
:10775000F2D40BF059FCA0FB06012A88830A43EA05
:1077600081539B1A9BB2092BF0D9604ABFF35B8F00
:1077700052E8003F43F0010142E800100028F7D131
:10778000BFF35B8F13F00103F0D1594A59491160DF
:10779000594ABFF35B8F52E8001F41F0010142E8F4
:1077A00000100028F7D1BFF35B8F5449544A554865
:1077B00040F20334C1F83C474FF40044C1F80C4593
:1077C0004FF0FF312F24C2F86045C2F86415012440
:1077D000C2F86815C2F86C151421C2F80045C2F849
:1077E0000C35C2F80435C2F80815C2F81035C2F8D5
:1077F0000032C2F8003303600068434907900798DD
:107800000B600868069006984B60486805900598DC
:107810008B60886804900498CB60C86803900398D4
:107820000B610869029002984B611431374C09686A
:107830000191374937480988019DC2F82005C2F8EF
:107840002415C2F82835C2F82C35C2F84005C2F814
:107850004415C2F84835C2F84C35C2F8143594F9CD
:1078600000301F2B32DD03F1604202F561424021FE
:1078700082F8001392F800235109EC220A41D20742
:107880000CD5254A9168B1B1590903F01F0452F88B
:1078900021000123A340034342F82130184B1F4A23
:1078A0001324B2200121C3F80042C3F80003116081
:1078B00009B0BDE8F08F002BF0DB194903F01F0081
:1078C00001225B09824041F82320E7E7154ADA40AC
:1078D000D107E3D5002BC6DA134A03F00F010A449F
:1078E00040211176127E5109C7E700BF587E002063
:1078F000507E0020117302004863002000030050F6
:1079000000C0014004C1014008C10140547E002074
:107910004C630020506300202CA1002008C00140CF
:1079200000E100E0FC06FFBDFCEC00E008B5104BF8
:10793000104A4FF4004140F20330C3F83C07C3F84B
:107940000C15D368D90103D50B4B1A68D2070AD49A
:107950000BF05AFB094B0A4AA0FB0301830A43EAD6
:107960008153138008BD5B68054A9B09138008BDDD
:1079700000030050F0ED00E0001000E040420F0076
:10798000446300202DE9F04F9DB010AF04460E4631
:10799000154601461A46384609F060FB97E8030091
:1079A0000B0C8DF84E30ADF84C101399A37C12904F
:1079B0000A0C012BCDE915551496ADF86C108DF815
:1079C0006E201A9000F0928200231793ADF8603079
:1079D0002368C3491A6B00238A428DF862301993D9
:1079E00040F0C7820123BF49BFF35B8F51E8002FEE
:1079F000002A03D141E800300028F7D1BFF35B8FA4
:107A0000F1D1159BB84A1B010024B3F5586F1480BF
:107A100000F26081169F002F40F35C819DF9623077
:107A200006939DF85F3007939DF860309DF86900DC
:107A30009DF868109DF86A2008939DF861300993BD
:107A40009DF85C30009301319DF85E300193013266
:107A5000013004910592149E9DF85D50A34B039054
:107A600048F2040248F20E01029721E12844FF285F
:107A7000039F28BFFF2007FB00FC1CF4004F0CBF36
:107A80001046084623F8300CCCF307201CF4804F36
:107A900000F0200A00F0100900F0080814BF48F2B6
:107AA0000E0B48F2040B00F0040CBAF1000F14BFE7
:107AB0008A469246B9F1000F14BF89469146B8F143
:107AC000000F14BF8846904600F0020E23F82CAC3D
:107AD00000F0010023F82A9C23F8288C23F82EBC00
:107AE000BCF1000F14BF8C46944600280CBF104612
:107AF0000846BEF1000F14BF8E46964623F824ECCC
:107B000023F8220C23F826CC3078002800F0C68118
:107B1000009F3844FF28049F28BFFF2007FB00FC7C
:107B20001CF4004F0CBF1046084623F8200CCCF381
:107B300007201CF4804F00F0200A00F0100900F02C
:107B4000080814BF48F20E0B48F2040B00F0040CB6
:107B5000BAF1000F14BF8A469246B9F1000F14BF64
:107B600089469146B8F1000F14BF8846904600F050
:107B7000020E23F81CAC00F0010023F81A9C23F835
:107B8000188C23F81EBCBCF1000F14BF8C46944621
:107B900000280CBF10460846BEF1000F14BF8E46E9
:107BA000964623F814EC23F8120C23F816CCB07880
:107BB000002800F06581019F3844FF28059F28BFF9
:107BC000FF2007FB00FC1CF4004F0CBF10460846CA
:107BD00023F8100CCCF307201CF4804F00F0200A8F
:107BE00000F0100900F0080814BF48F20E0B48F22C
:107BF000040B00F0040CBAF1000F14BF8A46924641
:107C0000B9F1000F14BF89469146B8F1000F14BFB7
:107C10008846904600F0020E23F80CAC00F00100FC
:107C200023F80A9C23F8088C23F80EBCBCF1000F43
:107C300014BF8C469446079F23F806CCB846009F95
:107C4000A8EB0709089F7D1B099FB846019FA8EB79
:107C500007085FFA89F70097069F3E44029F149633
:107C6000013F02971834204F00280CBF10460846E9
:107C7000A4B25FFA88F8CDF804803C8023F8020CA7
:107C8000009F02988DF85C70EDB2019F8DF85D50F9
:107C9000BEF1000F14BF8E4696468DF85E7023F835
:107CA00004EC1690B0B1B4F5586F03F1300311D065
:107CB000707800287FF4DAAE23F8302C23F82E2CCD
:107CC00023F82C2C23F82A2C23F8282C864648F25B
:107CD000040C0AE7064E074D074C084F1AE000BF98
:107CE00025740200486300204C630020806300205C
:107CF00044630020F0ED00E040420F00001000E07F
:107D00003B68D80709D57B6832889B099B1A9BB2D0
:107D1000092B0ED8EB68DB01F2D40BF075F9A0FB50
:107D200004013288830A43EA81539B1A9BB2092BD0
:107D3000F0D9B24ABFF35B8F52E8003F43F0010134
:107D400042E800100028F7D1BFF35B8F13F0010366
:107D5000F0D1AB4AAB491160AB4ABFF35B8F52E83D
:107D6000001F41F0010142E800100028F7D1BFF3E5
:107D70005B8FA649A64AA74840F20334C1F83C47A6
:107D80004FF40044C1F80C454FF0FF312F24C2F8E6
:107D90006045C2F864150124C2F86815C2F86C1574
:107DA0001421C2F80045C2F80C35C2F80435C2F8F7
:107DB0000815C2F81035C2F80032C2F8003303606B
:107DC000006895490A900A980B6008680B900B9818
:107DD0004B6048680C900C988B6088680D900D98EB
:107DE000CB60C8680E900E980B6108690F900F98D1
:107DF0004B611431894C0968129189498948098875
:107E0000129DC2F82005C2F82415C2F82835C2F820
:107E10002C35C2F84005C2F84415C2F84835C2F8FE
:107E20004C35C2F8143594F900301F2B44DD03F1B2
:107E3000604202F56142402182F8001392F800236B
:107E40005109EC220A41D2070DD5774A91680029E1
:107E500041D0590903F01F0452F821000123A34027
:107E6000034342F821306A4B704A1324B2200121A7
:107E7000C3F80042C3F8000311601DB0BDE8F08FE5
:107E800023F8102C23F80E2C23F80C2C23F80A2CA2
:107E900023F8082C864648F2040CCCE623F8202C64
:107EA00023F81E2C23F81C2C23F81A2C23F8182C4A
:107EB000864648F2040C6BE65D4ADA40D107D2D51B
:107EC000002BB4DA5B4A03F00F010A44402111761B
:107ED000127E5109B5E7002BC5DB574903F01F009F
:107EE00001225B09824041F82320BCE7534A137802
:107EF000013303F0070313F00101137016BF802153
:107F00004022C02213F0020F08BF0A46590744BF9F
:107F100042F02002D2B29DF868101032D2B271BB8A
:107F20008DF85F108DF85C109DF86910002940D124
:107F30008DF860108DF85D109DF86A30002B52D0DE
:107F40004FF48071B1FBF3F3DBB2591CC9B201FBF2
:107F50000222C2F30720121218BF00F1FF328DF87F
:107F600061108DF85E2000293FF432AD8DF861304C
:107F70002EE5204614A990471DB0BDE8F08F4FF4C0
:107F80008073B3FBF1F3DBB2591CC9B201FB0220D1
:107F9000C0F3072500128DF85F1029D0681E8DF8F8
:107FA0005C000029C0D09DF869108DF85F30002971
:107FB000BED04FF48073B3FBF1F3DBB2591CC9B2EE
:107FC00001FB0220C0F3072500128DF8601012D0CB
:107FD000681E8DF85D000029AED08DF860309DF8E8
:107FE0006A30002BACD18DF861308DF85E30EFE453
:107FF0008DF85C00D5E78DF85D00ECE7587E002039
:10800000507E0020117302004863002000030050DE
:1080100000C0014004C1014008C10140547E00205D
:108020004C630020506300202CA1002008C00140B8
:10803000FC06FFBDFCEC00E000E100E04063002036
:108040002DE9F04F9DB010AF0E46154601461A4679
:108050000446384609F002F897E803000B0C8DF847
:108060004E30ADF84C101399A27C149685EAE57356
:108070000E0CA3EBE573012ACDE915331290ADF890
:108080006C108DF86E601A9000F09A82002317939E
:10809000ADF8603000239D424FF003021993B8BF42
:1080A000FD238DF86220B8BF8DF862302368C14A85
:1080B0001B6B934240F0C7820123BF49BFF35B8F24
:1080C00051E8002F002A03D141E800300028F7D101
:1080D000BFF35B8FF1D1159BB84A1B010024B3F5A8
:1080E000586F148000F26081169F002F40F35C816E
:1080F0009DF9623006939DF85F3007939DF86030DC
:108100009DF869009DF868109DF86A2008939DF815
:10811000613009939DF85C30009301319DF85E3029
:1081200001930132013004910592149E9DF85D5037
:10813000A34B039048F2040248F20E01029721E19A
:108140002844FF28039F28BFFF2007FB00FC1CF4E6
:10815000004F0CBF1046084623F8300CCCF3072024
:108160001CF4804F00F0200A00F0100900F008080D
:1081700014BF48F20E0B48F2040B00F0040CBAF1E5
:10818000000F14BF8A469246B9F1000F14BF89460A
:108190009146B8F1000F14BF8846904600F0020ED9
:1081A00023F82CAC00F0010023F82A9C23F8288C3B
:1081B00023F82EBCBCF1000F14BF8C469446002857
:1081C0000CBF10460846BEF1000F14BF8E469646FF
:1081D00023F824EC23F8220C23F826CC307800284E
:1081E00000F0C681009F3844FF28049F28BFFF206D
:1081F00007FB00FC1CF4004F0CBF1046084623F898
:10820000200CCCF307201CF4804F00F0200A00F073
:10821000100900F0080814BF48F20E0B48F2040BD6
:1082200000F0040CBAF1000F14BF8A469246B9F16F
:10823000000F14BF89469146B8F1000F14BF88465D
:10824000904600F0020E23F81CAC00F0010023F869
:108250001A9C23F8188C23F81EBCBCF1000F14BF25
:108260008C46944600280CBF10460846BEF1000F0D
:1082700014BF8E46964623F814EC23F8120C23F80C
:1082800016CCB078002800F06581019F3844FF28A3
:10829000059F28BFFF2007FB00FC1CF4004F0CBF0C
:1082A0001046084623F8100CCCF307201CF4804F2E
:1082B00000F0200A00F0100900F0080814BF48F28E
:1082C0000E0B48F2040B00F0040CBAF1000F14BFBF
:1082D0008A469246B9F1000F14BF89469146B8F11B
:1082E000000F14BF8846904600F0020E23F80CAC35
:1082F00000F0010023F80A9C23F8088C23F80EBC38
:10830000BCF1000F14BF8C469446079F23F806CC9F
:10831000B846009FA8EB0709089F7D1B099FB84638
:10832000019FA8EB07085FFA89F70097069F3E4474
:10833000029F1496013F02971834204F00280CBF6B
:1083400010460846A4B25FFA88F8CDF804803C8055
:1083500023F8020C009F02988DF85C70EDB2019F2B
:108360008DF85D50BEF1000F14BF8E4696468DF815
:108370005E7023F804EC1690B0B1B4F5586F03F1B9
:10838000300311D0707800287FF4DAAE23F8302C57
:1083900023F82E2C23F82C2C23F82A2C23F8282C15
:1083A000864648F2040C0AE7064E074D074C084F74
:1083B0001AE000BF25740200486300204C630020CF
:1083C0008063002044630020F0ED00E040420F0095
:1083D000001000E03B68D80709D57B6832889B090C
:1083E0009B1A9BB2092B0ED8EB68DB01F2D40AF082
:1083F0000BFEA0FB04013288830A43EA81539B1AD7
:108400009BB2092BF0D9B24ABFF35B8F52E8003F11
:1084100043F0010142E800100028F7D1BFF35B8F61
:1084200013F00103F0D1AB4AAB491160AB4ABFF383
:108430005B8F52E8001F41F0010142E80010002864
:10844000F7D1BFF35B8FA649A64AA74840F2033491
:10845000C1F83C474FF40044C1F80C454FF0FF31E0
:108460002F24C2F86045C2F864150124C2F86815CB
:10847000C2F86C151421C2F80045C2F80C35C2F8D8
:108480000435C2F80815C2F81035C2F80032C2F837
:1084900000330360006895490A900A980B600868E9
:1084A0000B900B984B6048680C900C988B60886818
:1084B0000D900D98CB60C8680E900E980B610869FE
:1084C0000F900F984B611431894C096812918949BA
:1084D00089480988129DC2F82005C2F82415C2F8FF
:1084E0002835C2F82C35C2F84005C2F84415C2F848
:1084F0004835C2F84C35C2F8143594F900301F2BBA
:1085000044DD03F1604202F56142402182F800132C
:1085100092F800235109EC220A41D2070DD5774A7F
:108520009168002941D0590903F01F0452F8210035
:108530000123A340034342F821306A4B704A1324BD
:10854000B2200121C3F80042C3F8000311601DB03E
:10855000BDE8F08F23F8102C23F80E2C23F80C2CF8
:1085600023F80A2C23F8082C864648F2040CCCE6A3
:1085700023F8202C23F81E2C23F81C2C23F81A2C6B
:1085800023F8182C864648F2040C6BE65D4ADA4064
:10859000D107D2D5002BB4DA5B4A03F00F010A44AD
:1085A00040211176127E5109B5E7002BC5DB5749F2
:1085B00003F01F0001225B09824041F82320BCE741
:1085C000534A1378013303F0070313F001011370CA
:1085D00016BF80214022C02213F0020F08BF0A46B6
:1085E000590744BF42F02002D2B29DF86810103201
:1085F000D2B271BB8DF85F108DF85C109DF86910D8
:10860000002940D18DF860108DF85D109DF86A301A
:10861000002B52D04FF48071B1FBF3F3DBB2591C45
:10862000C9B201FB0222C2F30720121218BF00F1E7
:10863000FF328DF861108DF85E2000293FF42AADDD
:108640008DF8613026E5204614A998471DB0BDE895
:10865000F08F4FF48073B3FBF1F3DBB2591CC9B256
:1086600001FB0220C0F3072600128DF85F1029D00D
:10867000701E8DF85C000029C0D09DF869108DF83F
:108680005F300029BED04FF48073B3FBF1F3DBB24F
:10869000591CC9B201FB0220C0F3072600128DF855
:1086A000601012D0701E8DF85D000029AED08DF8DC
:1086B00060309DF86A30002BACD18DF861308DF8B8
:1086C0005E30E7E48DF85C00D5E78DF85D00ECE7FF
:1086D000587E0020507E0020117302004863002065
:1086E0000003005000C0014004C1014008C1014026
:1086F000547E00204C630020506300202CA10020F9
:1087000008C00140FC06FFBDFCEC00E000E100E019
:10871000406300202DE9F04F0468494F656ABD426F
:108720009FB00646884640F0D282837C0393F07C5B
:10873000002800F0DB816468424B776875699C42D1
:1087400040F09D8212AC20464246314608F086FC3D
:1087500094E803000B0C8DF85630ADF854101599C1
:10876000B27C149085EAE5730C0CA3EBE573012A47
:10877000CDE917331697ADF874108DF876401C903C
:1087800000F0E48200231993ADF8683000239D4285
:108790004FF003021B93B8BFFD238DF86A20B8BFCA
:1087A0008DF86A303368284A1B6B934240F010837F
:1087B00001232649BFF35B8F51E8002F002A03D124
:1087C00041E800300028F7D1BFF35B8FF1D1179B50
:1087D0001F4A1B010020B3F5586F108000F29181F1
:1087E000189B0293002B40F38C819DF96A3007930C
:1087F0009DF867309DF871409DF870109DF87220CB
:1088000008939DF868309DF8655009939DF869308C
:10881000DDF858C00A9301319DF8643001930132AC
:10882000013405910692CDF800C09DF86670094BA1
:10883000049448F2040248F20E010B96AC462DE176
:10884000C9720200418002002574020048630020C2
:108850004C630020806300206444FF2C049D28BFEB
:10886000FF2405FB04F515F4004F0CBF14460C461D
:1088700023F8304CC5F3072415F4804F04F0200A88
:1088800004F0100904F0080814BF48F20E0B48F277
:10889000040B04F00405BAF1000F14BF8A46924697
:1088A000B9F1000F14BF89469146B8F1000F14BF0B
:1088B0008846904604F0020E23F82CAC04F0010424
:1088C00023F82A9C23F8288C23F82EBC002D14BFF3
:1088D0000D461546002C0CBF14460C4623F8224CBE
:1088E000BEF1000F14BF8E469646009C23F824EC80
:1088F00023F8265C2478002C00F0D581019D2C44BF
:10890000FF2C059D28BFFF2405FB04F515F4004F3F
:108910000CBF14460C4623F8204CC5F3072415F46D
:10892000804F04F0200A04F0100904F0080814BF76
:1089300048F20E0B48F2040B04F00405BAF1000FE4
:1089400014BF8A469246B9F1000F14BF894691467A
:10895000B8F1000F14BF8846904604F0020E23F8C9
:108960001CAC04F0010423F81A9C23F8188C23F89B
:108970001EBC002D14BF0D461546002C0CBF14461E
:108980000C4623F8124CBEF1000F14BF8E469646DB
:10899000009C23F814EC23F8165CA478002C00F05B
:1089A00074813C44069DFF2C28BFFF2405FB04F482
:1089B00014F4004F0CBF15460D4623F8105CC4F3A9
:1089C000072514F4804F05F0200A05F0100905F082
:1089D000080814BF48F20E0B48F2040B05F0040E11
:1089E000BAF1000F14BF8A469246B9F1000F14BFC6
:1089F00089469146B8F1000F14BF8846904605F0AD
:108A0000020423F80CAC05F0010523F80A9C23F8B6
:108A1000088C23F80EBCBEF1000F14BF8E4696469C
:108A2000089E23F806ECB046019EA8EB0608099EB6
:108A3000A6EB0C0C0A9EF71B5FFA88F60196079EC0
:108A4000B046009E46440096029E183006F1FF385C
:108A5000A94ECDF8088080B23080019E8DF8646008
:108A6000002C14BF0C461446029E23F8044C5FFAF7
:108A70008CFC009C8DF865C0FFB2002D0CBF154624
:108A80000D468DF8667023F8025C16941896002E39
:108A900036D0B0F5586F03F1300331D0009C6478C4
:108AA000002C7FF4D9AE23F8302C23F82E2C23F899
:108AB0002C2C23F82A2C23F8282CA64648F204054F
:108AC00008E7002B07DB8D4903F01F0001225B093B
:108AD000824041F823208A4B8A4A1321C3F80012AE
:108AE000B2200121C3F8000311603468A36A864AEA
:108AF000934240F0E680039BB3741FB0BDE8F08F53
:108B00000B9E824F824D834CDFF83C820BE0D8F8FD
:108B10000030D8070AD5D8F804303A889B099B1A48
:108B20009BB2092B0ED8EB68DB01F0D40AF06CFA8B
:108B3000A0FB04013A88830A43EA81539B1A9BB243
:108B4000092BF0D9744ABFF35B8F52E8003F43F022
:108B5000010142E800100028F7D1BFF35B8F13F04A
:108B60000103F0D16D4A6E4911606E4ABFF35B8F0D
:108B700052E8001F41F0010142E800100028F7D13F
:108B8000BFF35B8F68495E4A684840F20334C1F81E
:108B90003C474FF40044C1F80C454FF0FF312F24FF
:108BA000C2F86045C2F864150124C2F86815C2F81D
:108BB0006C151421C2F80045C2F80C35C2F8043512
:108BC000C2F80815C2F81035C2F80032C2F80033F6
:108BD0000360006856490C900C980B6008680D9073
:108BE0000D984B6048680E900E988B6088680F90C7
:108BF0000F98CB60C868109010980B6108691190AD
:108C000011984B6114314B4C096814913A494A4808
:108C10000988149DC2F82005C2F82415C2F8283529
:108C2000C2F82C35C2F84005C2F84415C2F84835E0
:108C3000C2F84C35C2F8143594F900301F2B4BDDC7
:108C400003F1604202F56142402182F8001392F87C
:108C500000235109EC220A41D2077FF53CAF374A85
:108C6000916800293FF42DAF590903F01F0452F811
:108C700021000123A340034342F821302BE7434660
:108C80002A4639463046A0472FE723F8102C23F810
:108C90000E2C23F80C2C23F80A2C23F8082C25463C
:108CA00048F2040EBCE623F8202C23F81E2C23F8EF
:108CB0001C2C23F81A2C23F8182CA64648F204057D
:108CC0005BE60399304698471FB0BDE8F08F4169D5
:108CD000A847346803902AE5194ADA40D1077FF59E
:108CE000FAAE002BACDA174A03F00F010A44402118
:108CF0001176127E5109ADE74C63002000E100E0DF
:108D000000C0014008C00140CD7202004463002051
:108D1000F0ED00E040420F00587E0020507E002021
:108D200011730200486300200003005004C1014099
:108D300008C10140547E0020506300202CA1002077
:108D4000FC06FFBDFCEC00E0001000E03F4A137899
:108D5000013303F0070313F00101137016BF8021E4
:108D60004022C02213F0020F08BF0A46590744BF31
:108D700042F02002D2B29DF870301032D2B25BBB0A
:108D80008DF867308DF864309DF87130002B3FD13D
:108D90008DF868308DF865309DF872309BB34FF4D4
:108DA0008071B1FBF3F3DBB2591CC9B201FB0222A3
:108DB000C2F30720121218BF00F1FF328DF86910BC
:108DC0008DF8662000293FF4E1AC8DF86930DDE4D0
:108DD00016A93046984788E64FF48071B1FBF3F34B
:108DE000DBB2591CC9B201FB0220C0F307240012F8
:108DF0008DF8671026D0601E8DF864000029C3D05E
:108E00008DF86730C0E78DF869308DF86630BDE4C5
:108E10004FF48071B1FBF3F3DBB2591CC9B201FB13
:108E20000220C0F3072400128DF8681007D0601EDE
:108E30008DF865000029AFD08DF86830ACE78DF86B
:108E40006500F7E78DF86400D8E700BF40630020B5
:108E50002DE9F04F0546A1B008F0F0F82B684A491B
:108E60009A698A4240F0A2825A6A48498A4240F08E
:108E7000C582AA7C0492EA7C002A00F070825C68B9
:108E8000434B6F686E699C4240F0CE8214AC204622
:108E90000022294608F0E2F894E803000B0C8DF854
:108EA0005E30ADF85C101799AA7C169086EAE673DE
:108EB0000C0CA3EBE673012ACDE919331897ADF832
:108EC0007C108DF87E401E9000F0EA8200231B93F8
:108ED000ADF8703000239E424FF003021D93B8BFDF
:108EE000FD238DF87220B8BF8DF872302B68294AA7
:108EF0001B6B934240F0168301232749BFF35B8F1E
:108F000051E8002F002A03D141E800300028F7D1B2
:108F1000BFF35B8FF1D1199B204A1B010020B3F5F1
:108F2000586F108000F225821A9B0393002B40F3A8
:108F300020829DF9723008939DF86F3009939DF857
:108F400070309DF879409DF878109DF87A200A934A
:108F50009DF871300B939DF86D309DF86C600C930B
:108F600001310132189F02960134069107920D9546
:108F70009DF86E600A4B0C9D059448F2040248F27D
:108F80000E01019733E100BF15870200C97202008C
:108F90004180020025740200486300204C630020D9
:108FA000806300202C44FF2C059F28BFFF2407FB73
:108FB00004FC1CF4004F0CBF14460C4623F8304C44
:108FC000CCF307241CF4804F04F0200A04F01009AD
:108FD00004F0080814BF48F20E0B48F2040B04F02A
:108FE000040CBAF1000F14BF8A469246B9F1000F83
:108FF00014BF89469146B8F1000F14BF88469046C9
:1090000004F0020E23F82CAC04F0010423F82A9C8F
:1090100023F8288C23F82EBCBCF1000F14BF8C461B
:109020009446002C0CBF14460C4623F8224CBEF18B
:10903000000F14BF8E469646019C23F824EC23F8BB
:1090400026CC2478002C00F0C581029F3C44FF2CE4
:10905000069F28BFFF2407FB04FC1CF4004F0CBF35
:1090600014460C4623F8204CCCF307241CF4804F04
:1090700004F0200A04F0100904F0080814BF48F2B4
:109080000E0B48F2040B04F0040CBAF1000F14BFED
:109090008A469246B9F1000F14BF89469146B8F14D
:1090A000000F14BF8846904604F0020E23F81CAC53
:1090B00004F0010423F81A9C23F8188C23F81EBC32
:1090C000BCF1000F14BF8C469446002C0CBF144614
:1090D0000C4623F8124CBEF1000F14BF8E46964684
:1090E000019C23F814EC23F816CCA478002C00F093
:1090F00063813444FF2C079F28BFFF2407FB04FC37
:109100001CF4004F0CBF14460C4623F8104CCCF353
:1091100007241CF4804F04F0200A04F0100904F026
:10912000080814BF48F20E0B48F2040B04F0040CBC
:10913000BAF1000F14BF8A469246B9F1000F14BF6E
:1091400089469146B8F1000F14BF8846904604F056
:10915000020E23F80CAC04F0010423F80A9C23F857
:10916000088C23F80EBCBCF1000F14BF8C4694464B
:10917000099F23F806CCB846029FA8EB07080A9F70
:109180007D1B0B9FBE1B5FFA88F70297089FB846AE
:10919000019F47440197039F183007F1FF38AB4FF9
:1091A000CDF80C8080B23880029F8DF86C70002C56
:1091B0000CBF14460C46039F23F8024CEDB2019CF1
:1091C0008DF86D50F6B2BEF1000F14BF8E46964674
:1091D0008DF86E6023F804EC18941A97002F00F0B5
:1091E000C780B0F5586F03F1300300F0C180019CD7
:1091F0006478002C7FF4D6AE23F8302C23F82E2C84
:1092000023F82C2C23F82A2C23F8282CA64648F2E5
:10921000040C06E78E4ABFF35B8F52E8003F43F031
:10922000010142E800100028F7D1BFF35B8F13F073
:109230000103F0D1874A88491160884ABFF35B8FE8
:1092400052E8001F41F0010142E800100028F7D168
:10925000BFF35B8F8249834A834840F20334C1F8ED
:109260003C474FF40044C1F80C454FF0FF312F2428
:10927000C2F86045C2F864150124C2F86815C2F846
:109280006C151421C2F80045C2F80C35C2F804353B
:10929000C2F80815C2F81035C2F80032C2F800331F
:1092A0000360006871490E900E980B6008680F907B
:1092B0000F984B604868109010988B6088681190E8
:1092C0001198CB60C868129012980B6108691390CE
:1092D00013984B611431664C096816915B496548D7
:1092E0000988169EC2F82005C2F82415C2F8283550
:1092F000C2F82C35C2F84005C2F84415C2F848350A
:10930000C2F84C35C2F8143594F900301F2B7BDDC0
:1093100003F1604202F56142402182F8001392F8A5
:1093200000235109EC220A41D2070DD5524A916817
:1093300000297FD0590903F01F0452F821000123AE
:10934000A340034342F82130464B4C4A1321C3F853
:109350000012B2200121C3F8000311602B689B6A40
:10936000474A934244D1049BAB7421B0BDE8F08FCF
:109370000D9DDFF82881434F434E444C0BE023689A
:10938000D8070BD563689B09B8F800209B1A9BB2DD
:10939000092B3FF63FAFFB68DB01F0D409F034FE48
:1093A000A0FB0601830A43EA8153EDE7284600212A
:1093B000904721B0BDE8F08F23F8102C23F80E2C35
:1093C00023F80C2C23F80A2C23F8082CA64648F284
:1093D000040CCDE623F8202C23F81E2C23F81C2C9B
:1093E00023F81A2C23F8182CA64648F2040C6CE635
:1093F00004992846984721B0BDE8F08F696928464E
:1094000090472B68049036E5214ADA40D1079BD576
:10941000002BBFF67DAF1F4A03F00F010A44402125
:109420001176127E51097DE73246394600232846DF
:10943000A04793E7002B87DB174903F01F000122A9
:109440005B09824041F823207EE700BF4C63002087
:10945000587E0020507E00201173020048630020D7
:109460000003005000C0014004C1014008C1014098
:10947000547E0020506300202CA1002008C0014031
:10948000CD720200F0ED00E040420F00001000E05D
:10949000FC06FFBDFCEC00E000E100E044630020BE
:1094A0003F4A1378013303F0070313F001011370EF
:1094B00016BF80214022C02213F0020F08BF0A46C7
:1094C000590744BF42F02002D2B29DF87810103202
:1094D000D2B259BB8DF86F108DF86C109DF87910D1
:1094E00000293FD18DF870108DF86D109DF87A30FD
:1094F0009BB34FF48071B1FBF3F3DBB2591CC9B2DB
:1095000001FB0222C2F30720121218BF00F1FF3242
:109510008DF871108DF86E2000293FF4DBAC8DF8CA
:109520007130D7E418A92846984717E74FF480739D
:10953000B3FBF1F3DBB2591CC9B201FB0220C0F34B
:10954000072400128DF86F1026D0601E8DF86C0075
:109550000029C3D08DF86F30C0E78DF871308DF8D9
:109560006E30B7E44FF48073B3FBF1F3DBB2591CF8
:10957000C9B201FB0220C0F3072400128DF870105D
:1095800007D0601E8DF86D000029AFD08DF87030C7
:10959000ACE78DF86D00F7E78DF86C00D8E700BFF9
:1095A00040630020F8B5A049A04808F033FAA0486D
:1095B000B42100F08DFE002800F0F28180219C484B
:1095C00000F000FE63219A4800F0FCFD984800F08E
:1095D000BFFD9748B42100F07BFE002800F0F38126
:1095E0005E21934800F0EEFD9148002100F0EAFD75
:1095F0008F4800F0ADFD012008F050FB8C48B421ED
:1096000000F066FE002800F0FD828021884800F00E
:10961000D9FD8748632100F0D5FD854800F098FD0D
:109620000A2008F03BFB8248B42100F051FE0028DC
:1096300000F0DB822B217E4800F0C4FD7C48012134
:1096400000F0C0FD7A4800F083FD7948B42100F0B5
:109650003FFE002800F0BC822C21754800F0B2FDCE
:109660007348012100F0AEFD714800F071FD7048B3
:10967000B42100F02DFE002800F09D822D216C48C1
:1096800000F0A0FD6A48002100F09CFD684800F051
:109690005FFD6748B42100F01BFE002800F07E82C9
:1096A0002E21634800F08EFD6148002100F08AFD04
:1096B0005F4800F04DFD5E48B42100F009FE00282F
:1096C00000F05F822F215A4800F07CFD58480121AC
:1096D00000F078FD564800F03BFD5548B42100F0FD
:1096E000F7FD002800F040823021514800F06AFD6B
:1096F0004F48012100F066FD4D4800F029FD4C481F
:10970000B42100F0E5FD002800F021823121484815
:1097100000F058FD4648FF2100F054FD444800F099
:1097200017FD4348B42100F0D3FD002800F0028269
:1097300032213F4800F046FD3D48022100F042FD45
:109740003B4800F005FD3A48B42100F0C1FD002877
:1097500000F0DA813321364800F034FD344800212E
:1097600000F030FD324800F0F3FC3148B42100F045
:10977000AFFD002800F0BB8134212D4800F022FD10
:109780002B48002100F01EFD294800F0E1FC28488C
:10979000B42100F09DFD002800F09C813521244873
:1097A00000F010FD2248002100F00CFD204800F0E0
:1097B000CFFC1F4D1F4F42241DE000F003FD06218A
:1097C000284600F0FFFC284600F0C2FCB4212846E1
:1097D00000F07EFD0346214628466BB300F0F2FC04
:1097E00002340421284600F0EDFCE4B2284600F0E3
:1097F000AFFC5A2C30D0B421284600F069FD661E1B
:10980000F6B2034631462846002BD6D139460748E2
:1098100008F082F831461022044808F08FF92846F3
:1098200000F096FCD2E700BF80750300247F002083
:10983000207F0020187503003946BA4808F06CF8FC
:1098400021461022B748023408F078F9E4B22846DD
:1098500000F07EFC5A2CCED1B348B42100F038FD84
:10986000002800F02A815C21AF4800F0ABFCAE4834
:10987000402100F0A7FCAC4800F06AFCAA48B421E3
:1098800000F026FD002800F00B815D21A64800F0C5
:1098900099FCA548002100F095FCA34800F058FC75
:1098A000A148B42100F014FD002800F0EC805B21F9
:1098B0009D4800F087FC9C48112100F083FC9A48E9
:1098C00000F046FC9848B42100F002FD002800F0AA
:1098D000CD807B21944800F075FC9348CB2100F0AB
:1098E00071FC914800F034FC8F48B42100F0F0FC8A
:1098F000002800F0AE807C218B4800F063FC8A4891
:10990000002100F05FFC884800F022FC8648B4216A
:1099100000F0DEFC002800F08F807D21824800F0FE
:1099200051FC8148E42100F04DFC7F4800F010FC20
:109930007D48B42100F0CCFC002870D07E217A480C
:1099400000F040FC7848942100F03CFC764800F0A0
:10995000FFFB7548B42100F0BBFC002852D07F21EA
:10996000714800F02FFC7048CD2100F02BFC6E48B0
:1099700000F0EEFB6C48B42100F0AAFC80B35E213D
:10998000694800F01FFC0C21674800F01BFC66488A
:1099900000F0DEFBBDE8F8406449624808F03AB8E0
:1099A0006349604807F0B8FF802110225D4808F045
:1099B000C5F85D4800F0CCFB5B48B42100F088FCA2
:1099C00000287FF40DAE5A49564807F0A5FF102233
:1099D0005E21544808F0B2F8534800F0B9FB0AE69B
:1099E0005349504807F098FF5E2110224D4808F077
:1099F000A5F84D4800F0ACFBBDE8F8404B4949489C
:109A000008F008B84A49474807F086FF10227F212E
:109A1000444808F093F8444800F09AFBAAE7444908
:109A2000404807F079FF10227E213E4808F086F872
:109A30003D4800F08DFB8CE73D493A4807F06CFF4C
:109A400010227D21374808F079F8374800F080FB74
:109A50006EE73749334807F05FFF10227C21314819
:109A600008F06CF8304800F073FB4FE730492D48A0
:109A700007F052FF10227B212A4808F05FF82A489D
:109A800000F066FB30E72A49264807F045FF102220
:109A90005B21244808F052F8234800F059FB11E7F5
:109AA0002349204807F038FF10225D211D4808F0A7
:109AB00045F81D4800F04CFBF2E61D49194807F037
:109AC0002BFF10225C21174808F038F8164800F0E8
:109AD0003FFBD3E61649134807F01EFF102235213D
:109AE000104808F02BF8104800F032FB61E61049EE
:109AF0000C4807F011FF102234210A4808F01EF824
:109B0000094800F025FB42E60949064807F004FF32
:109B100010223321034808F011F8034800F018FB25
:109B200023E600BF247F0020207F0020A4750300CF
:109B3000187503003A493B4807F0EEFE1022322127
:109B4000384807F0FBFF384800F002FBFBE53449DA
:109B5000344807F0E1FE10223121324807F0EEFFD1
:109B6000314800F0F5FADCE52D492E4807F0D4FE27
:109B7000102230212B4807F0E1FF2B4800F0E8FAD3
:109B8000BDE52749274807F0C7FE10222F212548A9
:109B900007F0D4FF244800F0DBFA9EE52049214875
:109BA00007F0BAFE10222E211E4807F0C7FF1E48FC
:109BB00000F0CEFA7FE51A491A4807F0ADFE1022F0
:109BC0002D21184807F0BAFF174800F0C1FA60E5E8
:109BD0001349144807F0A0FE10222C21114807F069
:109BE000ADFF114800F0B4FA41E50D490D4807F00A
:109BF00093FE10222B210B4807F0A0FF0A4800F02B
:109C0000A7FA22E50649074807F086FE10228021C0
:109C1000044807F093FF044800F09AFA00E500BFFB
:109C200018750300247F0020207F002036482DE98E
:109C3000F0474FF41651044600F042FE204600F073
:109C400057FE0028FAD031492F4807F0E3FE30488C
:109C500000F04CFA002843D12E492B4807F08AFE29
:109C6000FFF7A0FC2C4C2D4B2D49274800229A7061
:109C700007F0D0FE2368DB0737D52A492A482B4E48
:109C800000231C220C4607F085F804F1540A2546EF
:109C9000B1464FF0FF08002785F800806F70AF7065
:109CA0003178484607F0B0F80335642007F0F6FF36
:109CB0005545F1D1DFF888801C4F002584F85450B9
:109CC00084F8555084F856503178384607F09CF89F
:109CD000033C0A2007F0E2FF4445EFD1BDE8F087DE
:109CE0001349094807F046FEBAE70F4D284607F02A
:109CF00081F9104B2B60104A10490123284623603C
:109D00000AF09CFFB9E700BF247F0020B87503006C
:109D1000207F0020C47503005C7E0020807E002030
:109D2000F8750300A07E0020607E0020D493002000
:109D3000F07503007476030000600020E1720200F9
:109D4000497E002070B51F48B42100F0C1FAF0B17F
:109D500000211C4800F036FA1A48B52100F0E8FA54
:109D600010B3194D174E0024E1B2A1F12A01B1FA46
:109D700081F14909304600F023FB01342B2C05F812
:109D8000010FF1D1BDE870400E4800F0E1B90F4974
:109D90000F4807F03FFE0B4800F0DAF9BDE87040CD
:109DA0000C490B4807F036BE0B49094807F032FE54
:109DB000044800F0CDF9BDE870400649044807F0BA
:109DC00029BE00BF207F0020F37E002038750300ED
:109DD000247F002004760300587503002DE9F04726
:109DE00084B0FFF7AFFF964B964E93F807C05F7AAB
:109DF00099791A7ADD7A93F80AE05C79187993F800
:109E00001180DFF848A2DFF8509241EA0C2142EAC3
:109E1000072293F80CC05F7B4EEA052E4CEA072C14
:109E2000DD7B9F7B40EA042047EA05279C7F1D7C61
:109E300020F0030045EA0825A0EB840093F8138086
:109E40009C7C44EA082493F81F8021F00301A1EBD5
:109E5000880193F8208022F00302A2EB880293F895
:109E600021802EF0030EAEEB880E93F822802CF0AA
:109E7000030C00B2ACEB880C93F8238009B20028E5
:109E800027F0030712B2B8BF4042A7EB88070029AA
:109E900093F8248030800FFA8EFEB8BF494225F037
:109EA0000305002A0FFA8CFCB8BF5242A5EB8805C7
:109EB000BEF1000F93F8258071803FB2B8BFCEF19C
:109EC000000E24F00304BCF1000F2DB2B8BFCCF19A
:109ED000000CA4EB8804002F24B2B8BF7F42002DF1
:109EE000B8BF6D42002CB8BF6442B280A6F806E04D
:109EF000A6F808C07781B581F481587D5D7EDA7E51
:109F000093F814C01C7E997E93F817E09F7DDFF8CC
:109F100044814CEA002C44EA052493F826005D7F36
:109F200041EA02211A7F47EA0E272CF0030C93F82E
:109F300027E042EA0522ACEB800C93F8285093F816
:109F4000290027F003070FFA8CFCA7EB8E0724F0FB
:109F5000030493F82AE021F003013FB2A1EB800152
:109F6000BCF1000F22F00302A4EB850458781D78A1
:109F700024B2B8BFCCF1000CA2EB8E03002F0AB2C2
:109F8000B8BF7F421BB284EAE471002AA1EBE471FE
:109F9000B8BF524200F00F04002BB8BF5B42A6F8D6
:109FA00010C02C43DFF8B4C0778214BF012700270C
:109FB000B182F28233838CF800508CF80270351D28
:109FC000214C8CF80100163600270FE00023237087
:109FD0006770A370E370277163711C489AF80010D2
:109FE00006F012FFAE4204F106041FD035F9021F3D
:109FF0000A22404607F0D2FD4946404607F08CFC55
:10A00000B5F900000528E1DD0023FF220092194682
:10A01000642207F027FE07EE900AF8EEE77AFCEEDE
:10A02000E77ACDED037A9DF80C30D0E7084909486E
:10A0300007F0F0FC142004B0BDE8F04707F02EBE96
:10A04000F47E0020847E0020A07E0020D493002097
:10A050002C760300247F0020287603007C7E0020DD
:10A0600038B5184C18480025012304220521C4E9FD
:10A070000055C4E90255C4E90455C4E90655C4E9CC
:10A080000855C4E90A55C4E90C55C4E90E55C4E99C
:10A090001055C4E91255256500F020F80B4A1368E5
:10A0A00013F0010303D10A48012103801160094B19
:10A0B0001A68D20704D408491C20012208701A60CB
:10A0C00038BD00BFA07E0020207F00203C63002020
:10A0D0004463002038630020547E002010B45DF8F3
:10A0E000044B41708270C370704700BF10B50446C6
:10A0F000002140780AF016FDA07800210AF012FD38
:10A10000607872B6E178F9B102210AF087FC62B694
:10A11000A07872B6E17841B102210AF07FFC62B604
:10A1200060780AF01DFD40B910BD0AF077FC62B6F8
:10A1300060780AF015FD0028F6D0A0780AF010FD2E
:10A14000003818BF012010BD0AF068FCDFE700BF2F
:10A1500030B5044683B0407872B6E3784BBB01213A
:10A160000AF05CFC62B6164D4FF4807045F00105B4
:10A17000A847A07872B6E178A9B102210AF04EFC96
:10A1800062B64FF48070A847607872B6E17869B122
:10A1900002210AF043FC62B64FF480702B4603B0F4
:10A1A000BDE8304018470AF039FCE9E70AF036FC10
:10A1B000F1E7002101900AF0B5FC0198CFE700BF5C
:10A1C000B07603002DE9F041404B82B004460F46C3
:10A1D00043F001080826802512E002210AF01EFC47
:10A1E00062B64FF48070C047A07872B6E3780BBBBC
:10A1F00001210AF013FC62B6013E4FEA550524D056
:10A2000017EA050160780ED072B6E17879B10221C3
:10A210000AF004FC62B6A07872B6E1780029DCD1BD
:10A220000AF0FCFBDCE772B6E3784BB901210AF0D7
:10A23000F5FBEFE7002101900AF074FC0198D7E7E5
:10A2400001900AF06FFC0198F0E7607872B6E1784F
:10A2500049B302210AF0E2FB62B6A07872B6E17857
:10A2600021B302210AF0DAFB62B68020C047607891
:10A270000AF076FCC5B2A07872B6E378FBB901218A
:10A280000AF0CCFB62B68020C047607872B6E378F3
:10A290007BB901210AF0C2FB62B6B5FA85F040092C
:10A2A00002B0BDE8F0810AF0B9FBD5E70AF0B6FBD1
:10A2B000DAE7002101900AF035FC0198E9E7002176
:10A2C00001900AF02FFC0198D9E700BFB076030097
:10A2D00030B5044683B040780D4672B6E378C3B912
:10A2E00001210AF09BFB62B6104B4FF4807043F0E3
:10A2F00001039847A07872B6E37883B901210AF088
:10A300008DFB62B62946204603B0BDE83040FFF71A
:10A3100059BF002101900AF005FC0198E0E70021F7
:10A3200001900AF0FFFB0198E8E700BFB076030058
:10A3300070B5044682B040780E4672B6E17859B3E3
:10A3400002210AF06BFB62B6A07872B6E17831B3F5
:10A3500002210AF063FB62B6184D4FF4807045F09D
:10A360000105A847607872B6E378DBB901210AF0ED
:10A3700055FB62B64FF48070A847A07872B6E378B8
:10A38000B3B901210AF04AFB62B63146204602B059
:10A39000BDE87040FFF716BF0AF040FBD3E70AF0B4
:10A3A0003DFBD8E7002101900AF0BCFB0198DDE7F6
:10A3B000002101900AF0B6FB0198E2E7B0760300B5
:10A3C0002DE9F041044682B04078884672B6E178C3
:10A3D00000295AD002210AF021FB62B63C4F082620
:10A3E00047F00107002506E00AF018FB62B6013EBF
:10A3F00016F0FF0620D04FF480706D00B847EDB224
:10A40000A07872B6E378022103B919460AF006FB78
:10A4100062B660780AF0A4FB08B145F00105A078A7
:10A4200072B6E3780121002BDED0002101900AF002
:10A4300079FB01980121D7E76078B8F1000F2FD0A0
:10A4400072B6E17841BB0AF0E9FA62B6A07872B65A
:10A45000E178E9B90AF0E2FA62B68020B847A0785C
:10A4600072B6E3783BBB01210AF0D8FA62B68020CD
:10A47000B847607872B6E378BBB901210AF0CEFA2A
:10A4800062B6284602B0BDE8F0810AF0C7FAA4E738
:10A4900002210AF0C3FADFE702210AF0BFFAD4E78B
:10A4A00072B6E3786BB90121CDE7002101900AF083
:10A4B00039FB0198E1E7002101900AF033FB019894
:10A4C000D1E7414601900AF02DFB0198EBE700BF70
:10A4D000B07603000146014800F0FCBA447F00203A
:10A4E00038B5064B1D783DB100242046013400F0FC
:10A4F00069FEE0B28542F9D838BD00BF407F002038
:10A50000007EFF280AD010B500F0F6FD044608B121
:10A51000204610BD0AF0DEF8204610BD002070472E
:10A52000007EFF280ED000B583B00DF1070100F0CA
:10A530003FFE20B19DF8070003B05DF804FB4FF02B
:10A54000FF30F9E74FF0FF30704700BF007EFF2873
:10A550000FD000B583B001220DF1070100F0D8FD46
:10A5600020B19DF8070003B05DF804FB4FF0FF3009
:10A57000F9E74FF0FF307047007EFF2801D000F070
:10A5800021BE7047007EFF2801D000F089BE002068
:10A59000704700BFF8B50646007EFF281CD017465E
:10A5A0005AB10D46144600F083FD2946224680B17B
:10A5B000307E00F051FE241A01D13846F8BD054422
:10A5C0000AF088F8307E00F073FD29462246002804
:10A5D000EED13F1B3846F1E70020F8BD002A00F01D
:10A5E00093802DE9F041494991F81C7191F81D6162
:10A5F00091F81E8192B01D46B81C08F10103144663
:10A60000B21C81F81C0181F81D2181F81E3101A8BE
:10A61000422200210BF0AEF9412D71D97B1CDBB237
:10A620008DF81E308DF827308DF8313040F6083225
:10A630000223ADF804208DF807308DF812308DF824
:10A6400033308DF83B3040F2022240F20943ADF83E
:10A650000820ADF80C3040F201224FF4A063ADF8B1
:10A660001020ADF814302422294B8DF816200693C3
:10A67000012204238DF81C208DF81F308DF8303016
:10A68000244D089540F2075340F22462ADF824208F
:10A69000ADF82830ADF838300325082340F6011214
:10A6A0008DF82B508DF82C30ADF82E2020460A2541
:10A6B000741C402307228DF834508DF83C308DF8FF
:10A6C0003F2044F2020301A966F07F0664F07F0494
:10A6D000052542228DF806708DF80E708DF82670D3
:10A6E0008DF83A808DF82A608DF840508DF8414001
:10A6F000ADF842300BF016F9422012B0BDE8F081FF
:10A70000002012B0BDE8F08142207047447F002055
:10A71000200105242402060570B50368184A5B6809
:10A7200082B093428DF8071021D10546007EFF28A4
:10A7300023D000F0BDFC0DF107060124314622466E
:10A7400088B1287E00F088FD241A02D1012002B0D1
:10A7500070BD064409F0BEFF287E00F0A9FC31461A
:10A7600022460028EDD1C4F1010002B070BD0122E3
:10A770000DF10701984702B070BD002002B070BD16
:10A7800095A50200002A00F093802DE9F041494987
:10A7900091F81C7191F81D6191F81E8192B01D46CF
:10A7A000B81C08F101031446B21C81F81C0181F8A1
:10A7B0001D2181F81E3101A8422200210BF0DAF898
:10A7C000412D71D97B1CDBB28DF81E308DF82730FE
:10A7D0008DF8313040F608320223ADF804208DF8B0
:10A7E00007308DF812308DF833308DF83B3040F261
:10A7F000022240F20943ADF80820ADF80C3040F2D7
:10A8000001224FF4A063ADF81020ADF814302422DB
:10A81000294B8DF816200693012204238DF81C2065
:10A820008DF81F308DF83030244D089540F20753D5
:10A8300040F22462ADF82420ADF82830ADF838306D
:10A840000325082340F601128DF82B508DF82C308B
:10A85000ADF82E2020460A25741C402307228DF8CF
:10A8600034508DF83C308DF83F2044F2020301A9AA
:10A8700066F07F0664F07F04052542228DF806709D
:10A880008DF80E708DF826708DF83A808DF82A605C
:10A890008DF840508DF84140ADF842300BF042F851
:10A8A000422012B0BDE8F081002012B0BDE8F08176
:10A8B00042207047447F0020200105242402060521
:10A8C000037EFF2B02D1074B1A7802B1704706496D
:10A8D00002764161012200F1100104481A7000F073
:10A8E000DBB800BF407F0020B8760300447F002023
:10A8F000007EFF280ED000B583B000F0D9FB10B168
:10A9000003B05DF804FB019009F0E4FE019803B088
:10A910005DF804FB0020704701B900B1704700B535
:10A9200083B0694600F0DAFB009BB3F5966F02D066
:10A9300003B05DF804FB00F05DFBF9E730B4084BB1
:10A94000084AFF2002F108054FF47A7400213032E2
:10A9500018761D609C601A6130BC5960596170475F
:10A96000247F0020C87603000378002B00F092803B
:10A97000F0B50546002004462E4603E001342B5D69
:10A980002E19C3B103F14002D2B2012AF6D9F42B39
:10A99000F4D81A0610D40122A3F55846B6F5006F74
:10A9A000ECD31444202806D021F810302B5D013060
:10A9B0002E19002BE6D1F0BD03F0E002C02A52D0E0
:10A9C00003F0F002E02A61D003F0F802F02AD5D1BA
:10A9D00003F007030427727802F0C00CBCF1800F6B
:10A9E000CCD196F802C00CF0C00E02F03F02BEF1CE
:10A9F000800F42EA8313C1D10CF03F0C032F4CEAC5
:10AA000083132AD0F27802F0C006802EB6D102F06D
:10AA10003F0242EA8313A3F58032B2F5801F38BFAC
:10AA20000427ABD2A3F55842B2F5006FA6D3B3F515
:10AA3000803F3C44B6D31E28BDDCA3F580334200E2
:10AA40009E0A0A44C3F30903A6F52056A3F5105342
:10AA500021F810605380023091E7A3F50062B2F54F
:10AA6000784FDFD38AE7727802F0C006802E03F0B9
:10AA70001F0383D102F03F0242EA8313A3F1800255
:10AA8000B2F5F06FBFF47AAF022285E703F00F034F
:10AA90000327A0E71846704770B504460E68B4F85F
:10AAA0001821B4F81A31656936689B1A08469BB2BA
:10AAB00094F81C112A44B04758B1B4F818316269AF
:10AAC00003449BB2A4F81831538094F81C311371DD
:10AAD000012070BD2DE9F043264DDFF8A890AC466B
:10AAE00004468846BCE80F0089B003AF0FC703AE29
:10AAF0000FCE05F1140E25460FC59EE80700DCF8C1
:10AB000000303B806B4636682E8003C36B4603CB18
:10AB1000012504F118034FF480766361A061E161BF
:10AB200084F8202004F59870C4F818912022A4F825
:10AB30001C61002184F81E510AF01CFF0E4E0F48C4
:10AB4000A571042240F2EF2340F209470021C4E935
:10AB50004A0184F85021A3804FF4E131C4E94876DA
:10AB60000748FFF7ADFE404600F032FA284609B02C
:10AB7000BDE8F08328770300FC7603000477030028
:10AB8000247F0020090000012DE9F047D0F82C01B6
:10AB900088B00E4630B10231FFF7E6FEC0B208B011
:10ABA000BDE8F087684600F027FA8646F8B1431EF4
:10ABB00006F10409DBB2114DE84609EB830904AC48
:10ABC00095E80F0018F8017B84E80F0007F00F0CE0
:10ABD0000DF1200AD4440AEB17171CF810CC17F813
:10ABE000103CA6F804C073800436B145E8D14FEAA2
:10ABF0004E00C0B208B0BDE8F08700BF1477030074
:10AC000000487047447F0020014B5869704700BFDF
:10AC1000447F002010B5B0B103281CD0154C94F827
:10AC20005031834223D9483004F5AA7154F82000EA
:10AC3000FFF79AFEC3B201335B0043F440730E4842
:10AC4000A4F8523110BD0B4CD4F82031A4F8543183
:10AC50004FF44173F3E70849A1F5A9742046FFF7C3
:10AC600093FF431C5B0043F440739BB2E7E7002073
:10AC700010BD00BF447F00209680002010B5134C0B
:10AC8000236882B003B3186851B906F00FF823683F
:10AC900093F90400012102B0BDE8104009F042BF61
:10ACA0000B4B00934FF48073ADF8043002AB13E903
:10ACB000060005F099FF236893F90400002102B013
:10ACC000BDE8104009F02EBF02B010BDD8800020B2
:10ACD00080BA8C010448006828B108B5006805F006
:10ACE000EBFF012008BD7047D8800020084B1B688F
:10ACF00063B119B1074B40221A607047054B4022DF
:10AD0000C3F88020BFF34F8FBFF36F8F704700BF32
:10AD1000D880002000E100E0024B53F8200000B191
:10AD2000C0687047DC80002030B4094CBDF8085082
:10AD300054F8204044B1246934B10846A446114671
:10AD40001A462B4630BC6047002030BC704700BF1D
:10AD5000DC80002030B4084CBDF8085054F8204086
:10AD600044B1646934B10846A44611461A462B46DC
:10AD700030BC604730BC7047DC800020024B186854
:10AD800008B190F860007047E48000202DE9F84396
:10AD9000234C2568002D40D01E462C2303FB005376
:10ADA0000446D3F8209088461746B9F1000F30D0FA
:10ADB00048460BF0F5F90828024628BF08222C2047
:10ADC00000FB0454D4E90954DFF85CC0154B002D96
:10ADD00008BF654649464046002C08BF1C460AF09D
:10ADE000A1FD28460BF0DCF910280246294628BFB1
:10ADF000102238460AF096FD20460BF0D1F90428BF
:10AE000002462146304628BF0422BDE8F8430AF036
:10AE100089BDDFF818900822D1E7BDE8F88300BFAC
:10AE2000E480002064770300547703004877030030
:10AE300070B5104E3368CBB12C2404FB00340546AA
:10AE400062691AB19047336884F832002C2202FB01
:10AE5000053393F832400CB1204670BD2846234696
:10AE60003A22022101F080F8204670BD1C4620469F
:10AE700070BD00BFE4800020074B1B6853B110B4C5
:10AE80002C2404FB0030C46A038E0C605DF8044B74
:10AE900013807047704700BFE480002008B520226F
:10AEA0000023052101F060F84FF0FF3008BD00BF1E
:10AEB00030B4084C256855B10446084611461A4678
:10AEC0002C2303FB0454E3690BB130BC1847012069
:10AED00030BC7047E480002030B4094C029A2568E9
:10AEE0004DB10446084619462C2303FB0454A368BD
:10AEF0000BB130BC18474FF0FF3030BC704700BF7B
:10AF0000E480002030B4094C029A25684DB1044613
:10AF1000084619462C2303FB0454E3680BB130BCEC
:10AF200018474FF0FF3030BC704700BFE48000206E
:10AF3000044B1B682BB12C2202FB0030036903B1C8
:10AF400018477047E4800020054B1B682BB12C226A
:10AF500002FB0030836903B118470120704700BF2E
:10AF6000E480002005F064BA00B5154B83B04022A0
:10AF700083F8272301A901230020ADF8043002F053
:10AF800071FF4FF080430024D3F838548DF800400F
:10AF9000684609F0E3F80B4B019301A809F00AF9A0
:10AFA00009F014F9EB0707D400214FF0FF3002F04D
:10AFB000E9FFFFF795FAF7E7204605F039FAF3E7DE
:10AFC00000E100E065AF0200002004F097BE00BF82
:10AFD00000B5002383B00322CDE9002303490448D0
:10AFE000C82207F021FE03B05DF804FB6877030078
:10AFF00069AF020009F00ABD4FF08052536E1BBAD0
:10B000000360136E1BBA4360082070470048704706
:10B010007077030070B51E4D2B6883B1012913D1E1
:10B020001478C4F34114012C0BD0022C07D15478AE
:10B03000012C0BD0022C07D19388072B20D00020A5
:10B0400070BD517822290BD0012070BD9C69002C65
:10B05000F5D0237811462246BDE8704003F0A0BE2B
:10B060005188003918BF01215975114603F07EFE41
:10B070002A68D369002BE7D0507D9847204670BDE1
:10B08000044C114623892246BDE8704003F088BE77
:10B09000E880002004600020704700BF704700BFB8
:10B0A000704700BF704700BF704700BF704700BFC8
:10B0B00010B5044602F0BEFE08B9002010BD02F033
:10B0C000C1FE0028F9D104484FF4367303FB040095
:10B0D000407900F0010010BD6C810020054B4FF459
:10B0E000367202FB0033986808609A899B7B8B71EB
:10B0F0008A8070476C81002008B5044B4FF436728B
:10B1000002FB0030103002F077FC08BD6C8100209B
:10B110002DE9F0474FF4367404FB00F4DFF88C801F
:10B120004FF6FF73064604F110054FF6FE7082429B
:10B1300088BF1A46454492B2284602F089FC074669
:10B1400002F078FE10B93846BDE8F08702F07AFECA
:10B1500082460028F7D108EB040999F80330002B48
:10B16000F1D0284602F062FC3F28ECD999F8031090
:10B1700018F8040003F048FD0028E4D0284602F047
:10B1800055FC3F2809D9084A99F80310504602EBAC
:10B19000C612402303F058FDD5E799F8031018F8BC
:10B1A000040003F041FDCEE7EC8000206C8100201C
:10B1B000034B4FF4367202FB0030103002F0B6BC85
:10B1C0006C8100202DE9F041064602F033FE10B9F3
:10B1D0000020BDE8F08102F035FE0028F8D14FF4E0
:10B1E00036751A4F05FB06F505F124043C4420464C
:10B1F00002F002FC0028EBD007EB0508785D98F818
:10B20000021003F001FD0028E2D01149402202EBB8
:10B21000C6160E442046314602F01AFC044668B1B8
:10B2200098F80210785D3246234603F00DFD50B9C0
:10B23000084B1B68DB07CBD500BECAE798F80210A5
:10B24000785D03F0F1FC2046C3E700BF6C8100206D
:10B25000EC800020F0ED00E038B5104B4FF4367470
:10B2600004FB003405464FF6FF734FF6FE70824232
:10B2700088BF1A46243492B2204602F091FC03465D
:10B2800020461C4602F0B8FB3F2801D8204638BDB6
:10B290002846FFF797FF204638BD00BF6C8100208D
:10B2A00008B5044B4FF4367202FB0030243002F034
:10B2B000BDFB08BD6C81002070B5214C82B000211F
:10B2C0004FF4367220460E460AF054FBFF234FF42B
:10B2D000E132082504F13801A371A26001234FF483
:10B2E0008072009604F11000A573A68102F04CFB59
:10B2F000144B1B78C3F38003009304F59C71012366
:10B300004FF4807204F1240002F03EFB04F50E714C
:10B31000012006F053FF04F522710546012006F0D6
:10B320004DFF05B130B9084B1B68DB0700D500BEE7
:10B3300002B070BDC4E90765C4E90C0602B070BD77
:10B340006C810020B8600020F0ED00E038B5094CB9
:10B35000206A256B20B107F0C9FA0023C4E907333E
:10B360002DB1284607F0C2FA0023C4E90C330120AE
:10B3700038BD00BF6C81002010B50E4C0E482378FC
:10B38000002202608280DA0709D59B070DD521785B
:10B390000A48BDE81040C1F3800102F0C3BC103080
:10B3A00002F0A0FC23789B07F1D4044802F09AFC39
:10B3B000EDE700BFB86000206C8100209081002084
:10B3C0002DE9F0414B79022B82B002D18B79022B0F
:10B3D00004D00025284602B0BDE8F081384FBB7884
:10B3E0002BB1384B1B68DB07F3D500BEF1E78B7838
:10B3F0007B7038700C780C440646617824294FF035
:10B4000009050BD1082A02D80FE0AA420DD32378F0
:10B410001C442B44617824299DB2F6D0052927D0FD
:10B42000042902D163790A2B30D002F003FD0028F1
:10B43000D0D002F007FD04460028CBD1FB78002BCA
:10B44000C8D0214802F0F2FA3F28C3D9F9783878F9
:10B4500003F0DAFB0028BDD01B4802F0E7FA3F28D2
:10B46000F97828D9194A2046402303F0EDFBB1E7CB
:10B470002146304603F0A4FB0028B2D0A3783B71EC
:10B4800023781C442B4461789DB2C9E7104A94F894
:10B4900000800192022301320092304604EB080141
:10B4A0001A4603F0FBFA00289BD005F10E0318FAA8
:10B4B00083F39DB2B9E7387803F0B6FB8AE700BFA3
:10B4C0006C810020F0ED00E07C810020EC80002009
:10B4D0006E810020137803F06003202B09D130B572
:10B4E000294C938865789D4283B004D0002003B036
:10B4F00030BD002070475378203B032BF6D8DFE89F
:10B5000003F02D280C02012932D0032923D1002079
:10B510005188FFF7CBFD0120E9E7012928D0032955
:10B5200019D11A4B52881978627111F0040102F096
:10B53000010418BF84F00101C2F3400214480192D3
:10B5400002F0F0FB0020019A2146FFF7E5F9012007
:10B55000CDE7012911D0012003B030BD01290CD065
:10B560000329F8D100200B49FFF79EFD0120BEE71B
:10B57000114603F0FBFB0120B9E711460723054AFA
:10B5800003F00EFC0120B2E76C810020B8600020BF
:10B5900090810020748100202DE9F047624DEA7807
:10B5A0008A420C4680461F4645D0AB788B4222D15A
:10B5B0000020FFF775FD02F03DFC002862D15B48DA
:10B5C00002F01AFA00282DD1002F2BD017F03F07D8
:10B5D00028D1A978404603F017FB18B3A978404654
:10B5E0003B463A4603F030FBE0B9514B1B68DA07A3
:10B5F0001ED500BE08E02B798B4213D04C4B1B6844
:10B60000DB0715D500BE0020BDE8F087494802F0F1
:10B6100003FA00287BD002F00DFC002857D1AB784C
:10B620009C42C5D02B79A34226D00120BDE8F087EB
:10B630000020BDE8F087404E9AB2314605F1100077
:10B6400002F0AEFAAB79FF2BE0D0002FDED006EB94
:10B65000070A05F1100902E0B245D7D0AB7916F818
:10B66000012B9A42F8D1484602F0D6F90028F3D1CE
:10B67000A979FFF713FDEFE70020FFF713FD012085
:10B68000BDE8F08702F0DEFB002898D1274802F0E1
:10B69000B3F9002893D0A978287803F0B5FA0028E8
:10B6A0008DD026492148402202F0D2F903460028D5
:10B6B00030D0224AA978287803F0C6FA0028B1D100
:10B6C0001B4B1B68D9077FF57AAF00BE77E702F006
:10B6D000B9FB06460028A2D1EB78002B9FD0154875
:10B6E00002F0A4F93F289AD9E978287803F08CFA77
:10B6F000002894D00F4802F099F93F280FD9402331
:10B700000D4AE978304603F09FFAAB7888E7FFF7F7
:10B71000C3FC80E7A978287803F086FA4FE7E97838
:10B72000287803F081FA7AE76C810020908100206C
:10B73000F0ED00E07C810020EC8000202C810020D6
:10B74000704700BF01207047704700BF704700BFBF
:10B75000044B0022C3E90022C3E90222C3E9042208
:10B76000704700BFC485002001207047044B0022B1
:10B77000C3E90022C3E90222C3E90422704700BFE3
:10B78000C48500202DE9F0414B79032B82B012D102
:10B7900006460879C0EBC0051235ADB295420C469D
:10B7A00005D8254F7A78002A42D07A7B52B1234BB4
:10B7B0001B68DA0704D40025284602B0BDE8F081F2
:10B7C00000BEF8E70C374FF4A0782278A318597818
:10B7D0002129ECD1BB60A15C07F1010E07F1020C3D
:10B7E00019440246CDE900CE0323304603F056F952
:10B7F0000028DCD0A379B978012B04BFE379FB7072
:10B800000123BB71A278BB683A70B3F80730BB80E4
:10B810000029D1D00A4A30464244402303F014FAAA
:10B820000028C9D1054B1B68DB07C5D500BEC3E79F
:10B830004FF08008C9E700BFC4850020F0ED00E0AC
:10B8400044840020137803F01F0CBCF1010F13D1C6
:10B850002DE9F0410C468549978815460A78FFB2D4
:10B86000BA4282B0064609D00A7BBA4200F0CF80C5
:10B87000002002B0BDE8F081002070470027B846E4
:10B88000BC460720062213F0600306D1012C00F00D
:10B89000A280012002B0BDE8F081202BE8D16B78B6
:10B8A000013B0A2BE4D80FF2080E5EF823F000BF2C
:10B8B00087B902007FB902006BB9020071B80200BB
:10B8C00071B8020071B8020071B8020071B80200CC
:10B8D0002BB9020001B90200DDB80200012C1ED014
:10B8E000032CD6D14FEA48036A88434401EB830313
:10B8F000D2B2604611469A71FFF722FF0120B8E7E5
:10B90000012CC6D14FEA48036A88434401EB830304
:10B91000110A6046D971FFF715FF0028A8D0294603
:10B92000304603F023FA0120A3E7012C00F08680C3
:10B93000032CAED1EC8869884D4B402C4FEA112284
:10B94000204628BF402011F0FF013B4407D0012CC6
:10B9500005D91C788C4202D1013880B201330090A5
:10B960006046FFF7F7F9012083E7012C91D10A44E3
:10B9700029463046234603F013FA204679E7012C86
:10B9800087D10A18F4E7012C83D1B5F806E06B885B
:10B990003749704640280F4428BF402013F0FF016C
:10B9A0004FEA13223B465CD0BEF1010F5BD9013850
:10B9B00003F8011B80B200906046FFF7B5F9231829
:10B9C0009BB2002B46D12B4A1268D2077FF550AFAD
:10B9D00000BE18464DE76B78062B7FF449AF6B88A5
:10B9E0001B0A212B18D0222B7FF442AF6046FFF7B1
:10B9F00093F91E494FEA4803434401EB830302468F
:10BA00009B882946304603F0CBF9204631E7C02712
:10BA100013201222E04636E74FEA4803984401EB30
:10BA20008808D8F80820002A3FF422AF1378294666
:10BA3000304602B0BDE8F04103F0B2B9EB88402BCC
:10BA40003FF616AF0A4A294630463A4403F0A8F9B1
:10BA500020460EE73A462946304603F0A1F9012078
:10BA600007E70C46A7E70024A5E700BFC485002030
:10BA700044840020F0ED00E0F0B5304EB4788C4204
:10BA800083B0054611D0707888422DD0B07B8842B3
:10BA900047D0707B88424CD0294B1B68DA0702D410
:10BAA000002003B0F0BD00BEFAE7777880244FF0A5
:10BAB000400C0020B9421AD012BB22499BB20C4460
:10BAC0000093114623460222FFF744F9B17822463B
:10BAD0002846402303F0B8F80028E2D1184B1B6831
:10BAE000DB07DDD500BEDCE74FF0400C00207AB963
:10BAF00014499AB26144FFF727FE012003B0F0BD5C
:10BB0000104A14449BB222460221FFF71FFEDDE7D4
:10BB10000C4A9BB262440121FFF718FE012003B0DA
:10BB2000F0BD777B4FF4A0740C364FF4807C01207D
:10BB3000C0E74FF4807C0120D9E700BFC485002016
:10BB4000F0ED00E044840020704700BF70B51A4C4F
:10BB500082B000210D464FF4EC72204609F00AFF36
:10BB600004F138010123802204F11000009501F056
:10BB70000BFF04F1B80101238022009504F1240099
:10BB800001F002FF04F59C71012006F017FB04F59B
:10BB9000C4710646012006F011FB30B9074B1B6843
:10BBA000DB0700D500BE02B070BDC4E90756C4E98A
:10BBB0000C0502B070BD00BF5C860020F0ED00E017
:10BBC00038B5094C206A256B20B106F08FFE0023A2
:10BBD000C4E907332DB1284606F088FE0023C4E9E6
:10BBE0000C33012038BD00BF5C86002010B5084C26
:10BBF000002304F11000C4E90033C4E9023302F069
:10BC000071F804F12400BDE8104002F06BB800BFE9
:10BC10005C8600202DE9F0474B79012B03D00024EE
:10BC20002046BDE8F0878B79012B0D468046924671
:10BC300018D049780429F2D10024032BEFD1E879F8
:10BC40000028ECD1DFF8F09099F8011099F8023053
:10BC500051EA030722D0354B1B68DB07DFD500BE56
:10BC60000446DDE7CB79002BD9D10B781D449CB27B
:10BC7000697824290BD1944202D9D0E7A245CED3CA
:10BC80002B781D442344697824299CB2F6D00429DA
:10BC9000C5D16B79012BC2D1AB79CEE7AB7889F8EE
:10BCA00000302E7828793444A4B22E4430B920E0F4
:10BCB000337887421C44A4B21E441AD2A24518D33A
:10BCC0007378052BF4D13146404602F079FF002805
:10BCD000C1D0B3782879DA0914BF89F8013089F81E
:10BCE000023096F800C07B1C6444DFB2A4B2664404
:10BCF000DEE70F4801F09AFE3F2891D999F802102B
:10BD0000002002F081FF00288AD0094801F08EFE51
:10BD10003F2899F8021005D9064A4023002002F076
:10BD200093FF7DE7002002F07FFF79E7F0ED00E070
:10BD30006C8600201C8600205C8600200020704756
:10BD4000F8B53C4DAC788C421E4625D13A499AB2A2
:10BD500005F1100001F024FF0020FFF7F5FE05F1CA
:10BD6000100001F063FE3F2802D801242046F8BDF0
:10BD7000A978002002F048FF04460028F5D005F11C
:10BD8000100001F053FE3F28A9784AD92A4A4023DF
:10BD9000002002F059FFE9E76B788B4208D0274B6F
:10BDA0001C6814F00104E1D000BE00242046F8BD58
:10BDB000074605F1240001F01FFEB8B9204801F044
:10BDC0001BFE0028D1D1002ECFD016F03F06CCD1DB
:10BDD0006978384602F018FF04460028C5D0697813
:10BDE00038463346324602F02FFFBFE7697800201D
:10BDF00002F00AFF0028E1D01249402205F1240098
:10BE000001F026FE034680B10E4A6978002002F058
:10BE10001BFF0028A9D1094B1B68DB07CED500BE4C
:10BE2000CCE7002002F000FFA0E7697802F0FCFEFA
:10BE3000C4E700BF5C8600201C860020F0ED00E017
:10BE400080860020DC85002038B5184CE57F94F80A
:10BE50002E10284602F056FFC8B9A368626B9342C1
:10BE600002D9217BC9091AD19B1A114AA3620FCAB0
:10BE7000104D07C52A4694F82E1002F80C390325F8
:10BE8000E07F84F838500D2302F0DEFE08B1012077
:10BE900038BD094B1B68DB07FAD500BE38BD284604
:10BEA00094F82E1002F010FF0120F1E7348A0020F0
:10BEB000548A002034880020F0ED00E010B5214ABB
:10BEC000011ED47F84B004DC4B1C22D081B104B0AD
:10BED00010BD8BB2204692F82E101B4A02F0B4FE21
:10BEE0000028F4D1194B1B68DA07F0D500BEEEE745
:10BEF00092F82E308DF8083001A807238DF8044001
:10BF000003918DF809108DF8053002F05BFC04B048
:10BF100010BD9168536B0E489063CB1A0120936259
:10BF200082F82C000029D2D0002BD0D0137BDB0963
:10BF300014BF92F82E1092F82F10204602F0C4FE83
:10BF4000C5E700BF348A002034880020F0ED00E00F
:10BF500002023A0000207047704700BF704700BFE0
:10BF60000120704712207047044880F8391080F88B
:10BF70003A2080F83B300120704700BF348A00200F
:10BF800002484022002109F0F5BC00BF348A00209D
:10BF900002484022002109F0EDBC00BF348A002095
:10BFA00030B54C79082C83B002D18C79062C02D0A4
:10BFB000002003B030BDCC79502CF9D1162A05D819
:10BFC000184B1B68D907F3D500BEF1E7164C8A78E9
:10BFD00084F82D20E0770B7804F12F0204F12E0570
:10BFE00019440223CDE900251A4602F057FD28B96D
:10BFF0000C4B1B68DA07DBD500BEDAE700250B4ADD
:10C0000094F82F10E07F84F838501F2302F01CFEB4
:10C0100008B11720CDE7034B1B68DB07F9D500BE3D
:10C020001720C6E7F0ED00E0348A002034880020B5
:10C03000012901D00120704770B5137803F07F010A
:10C04000022984B0054610D003F06003202B09D1EB
:10C050005378FE2B27D0FF2B04D1538813B9D388F4
:10C06000002B38D0002004B070BD5478012CEBD1E7
:10C070005388002BF6D1374E938896F83820042A3F
:10C08000D9B24FD096F82E408C422DD096F82F4042
:10C090008C4205D122B9214602F008FE002845D085
:10C0A000012004B070BD5388002BDBD1D488012C53
:10C0B000D8D10192FEF762FE0028D3D0019A461E25
:10C0C0001146284623460DF10F028DF80F6002F04D
:10C0D00067FE2046C7E71F4C1146C4E90C332846CB
:10C0E000A36302F043FEDBE7022AD9D1726BB36887
:10C0F000194D9B1AB36206F120030FCB07C52A46E0
:10C10000F07F02F80C39032386F8383021460D23DE
:10C1100002F09AFD0028C3D1104B1B68DB07A1D5A4
:10C1200000BEA0E702F0D0FD20469CE7214628464D
:10C1300002F0E8FD0028B3D10024074A96F82F103A
:10C14000F07F86F838401F2302F07EFD0028A7D13B
:10C15000E2E700BF348A002034880020F0ED00E0E0
:10C160002DE9F043B34C94F83850012D8BB01E46A6
:10C170007BD0032D0F4658D035B1022D00F08B80B7
:10C1800001200BB0BDE8F08394F82F308B42F7D13B
:10C190001F2E804640F09380DFF8A492A64BD9F87A
:10C1A00000209A4240F08B80CC46BCE80F00264627
:10C1B0000FC69CE80F0007C626F8023B1B0C337025
:10C1C000D4E90102E37B9D4EA5620121282B84F86E
:10C1D0002C50656360622263266284F8381000F098
:10C1E000AB802A2B00F09182002A00F05981217B3C
:10C1F000C90940F05581B2F5007F40F2128394F8EE
:10C200003930A26201210222E07F84F82C1084F8E8
:10C21000382023B90522202384F839206387394642
:10C2200002F052FD94F83850A7E794F82E308B4274
:10C23000A6D10D2EA4D1E37B282B00F05E822A2B01
:10C2400000F05F82607B04F10F01FFF787FE00259D
:10C250007B4A94F82F10E07F84F838501F2302F0B7
:10C26000F3FCE8B194F8385087E7B3F5007F1DD8A8
:10C27000E37B282B32D02A2B00F09E80636B227B3D
:10C280003344D209636300F08B80226B9A427ED8DC
:10C29000022384F83830FFF7D7FD00287FF470AF11
:10C2A000684B1B68DB0706D500BE6AE7654B1B6859
:10C2B000DE0700D500BE00200BB0BDE8F0830423EC
:10C2C00094F82E1084F83830404602F0FDFC4046C9
:10C2D00094F82F1002F0F8FC002052E7D4E90C2368
:10C2E000334493426363D3D2E28AA06852BA92B2D3
:10C2F00012B1B0FBF2F292B2C01AD4F81110B3FB33
:10C30000F2F5B0F5007F28BF4FF4007009BA02FBC8
:10C310001532009029444A4B607B012584F83C503B
:10C32000FEF7DAFD851C9DD0002384F83C30FFF732
:10C33000C5FD94F8385020E7E18A49BA89B2002A4D
:10C3400000F08280207BC50900F09380002900F076
:10C350001B828A42C0F0A182282B00F06C82607B95
:10C36000FEF7F2FD002800F08A82A368656B344A6C
:10C3700094F82F10E07F5B1BB3F5007F28BF4FF4CC
:10C3800000739BB202F060FC00287FF46BAF2D4B72
:10C390001B68DA077FF566AF00BE94F83850ECE60C
:10C3A000238E274A607B04F10F01FEF777FD0028FA
:10C3B000C0F2C881636B68E7E08A40BA80B218B106
:10C3C000A368B3FBF0F080B2D4F81110676B1C4D7A
:10C3D000B7FBF0F209BA1144009600FB12722B462B
:10C3E000607B012784F83C70FEF78CFD811C3FF4D4
:10C3F00039AF0023984284F83C30C0F2DB8186429A
:10C4000040F2F081361A002840F0498294F82F500B
:10C41000E27F8DF818500021072305A807968DF8B4
:10C4200019108DF814208DF8153002F0CBF994F81E
:10C430003850A2E6348A00205553424355534253A4
:10C4400034880020F0ED00E000293FF421AF94F89B
:10C4500039200223002184F82C3084F83830A1627E
:10C46000002A7FF418AF0522202384F8392063873F
:10C4700011E794F83910E07FA262022384F82C308F
:10C4800084F8383000297FF4CAAE0522202384F8CE
:10C4900039206387257BED09002D3FF4C0AE4AE1CA
:10C4A000657B252B3CD8DFE813F021013B003B00E6
:10C4B000F3003B003B003B003B003B003B003B00EC
:10C4C0003B003B003B003B003B003B003B002600A9
:10C4D0003B003B003B003B003B003B003B008F0030
:10C4E000C3003B003B009D003B003B003B003B008A
:10C4F000D0003B006C0024220021B64809F03AFA33
:10C50000B54BC9F80030B3491F234FF400722846D9
:10C5100089F80430FFF71EFD002800F0CF8140DAD3
:10C5200094F83930002B6CD1238EAA4AAB49607B3A
:10C53000FEF7B4FC002864DB98BBA368002B3FF433
:10C54000A7AE616B94F83920E07F5B1A01250221C8
:10C55000A36284F82C5084F8381022B905212022D7
:10C5600084F839106287002B3FF495AE237BDB09FA
:10C5700040F0E18094F82F1002F0A6FB94F83850B8
:10C58000FBE5284604AA05A9FEF776FC059B83B3C4
:10C59000BDF810206AB3013B1BBA12BAC9E90032D8
:10C5A0000820A568002D40F05B81636B94F839206A
:10C5B0005B4201200221A36284F82C0084F8381029
:10C5C000002A7FF468AE4EE72846FEF7BDFC80F0F7
:10C5D0000103DBB2DB0543F003030593C9F8003028
:10C5E0000420DEE7227DE17C2846FFF7B9FC002825
:10C5F000A3D194F8393023B902223A2384F83920A0
:10C600006387A268636B94F83910E07F0125D31A21
:10C6100084F82C500225A36284F8385021B90525EE
:10C62000202184F839506187002A3FF434AE9AE71C
:10C63000E17C2846C1F3400301F001020909FEF73D
:10C6400037FC00287FF479AFD3E705AE00230DF166
:10C650000E02284604A973600593B360FEF70CFC34
:10C66000049A002AC5D0BDF80E30002BC1D012BAF2
:10C67000082106925BBA0222ADF81E308DF8171021
:10C680008DF81C2096E8070089E807000C2088E751
:10C69000002794F83920608FADF82470CDE9057734
:10C6A000CDE907774FF0000362F30303F0210A227C
:10C6B0008DF81630ADF820008DF814108DF81B2081
:10C6C00005AE0FCEDFF80CC1ACE80F006146336851
:10C6D00021F8103928464FF40072FFF743FC002878
:10C6E00084F839706787BFF627AF1DE72846FEF745
:10C6F0009FFB00283FF47DAF1FE7607BFFF72CFC1A
:10C70000A5E5607BFEF714FCA1E5E18A49BA89B290
:10C71000002A3FF499AE207BC5093FF417AE94F888
:10C720003910E07FA262022384F82C3084F838307C
:10C7300000293FF4AAAE94F82E1002F0C5FA94F83E
:10C7400038501AE5A268636B94F8396084F82C506D
:10C750000220D11A84F83800A162E07F26B90526AC
:10C76000202584F839606587002A3FF48EAD0029C2
:10C770003FF48BAD237BDB0900F0978094F82E10FB
:10C7800002F0A2FA636B80E5012194F8393084F855
:10C790002C100221E07FA26284F83810002B7FF475
:10C7A0007BAE0521202384F839106387002A3FF4EB
:10C7B00072AD6FE601307FF455ADA268636B084936
:10C7C000E07F84F82C70D31AA362A163002A3FF49F
:10C7D00062ADC8E63488002000800202438A00204F
:10C7E00002023A00D4E90C23334493426363BFF45A
:10C7F0004FAD607BFEF7A8FB00285BD0626BA3689F
:10C8000094F82F10E07F9B1AB3F5007F28BF4FF4F8
:10C8100000732A469BB202F017FA00287FF422AD7B
:10C82000B5E593B239462A4A404602F00DFA00288F
:10C830007FF418AD34E5B2F5007FD4F81110244B25
:10C84000607B28BF4FF40072009209BA01250022D4
:10C8500084F83C50FEF740FB871C3FF403AD63E5D2
:10C86000854228BF05461A4A94F82E102563ABB2BC
:10C87000404602F0E9F900287FF4F4AC10E5A26824
:10C88000636B1449A163D31A0121E07FA36284F88A
:10C890002C10002A3FF4FFAC65E6022175E7291849
:10C8A0003246284609F04CF8B0E594F82F1002F013
:10C8B0000BFA7FE5A268636B064981E7064B2846C1
:10C8C000A3F11002A3F11801FEF760FA242068E634
:10C8D000348800200207270054880020704700BFDA
:10C8E000704700BF70B5134C134E84B020464FF410
:10C8F000AE72002109F03EF84025002304F58E7247
:10C90000CDE90156009219461A4604F1B00003958C
:10C9100004F012F82E4404F170020023CDE9002542
:10C92000CDE90265201D1946012204F005F804B086
:10C9300070BD00BFF48A0020748A002010B5054C39
:10C9400004F1B00004F022F8201D04F01FF80120CB
:10C9500010BD00BFF48A002038B5074C20460025E2
:10C9600000F8B85B01F0BEF904F10C0001F0BAF96F
:10C9700084F8B150657138BDF48A00204B79FF2BE3
:10C9800001D0002070472DE9F04FDFF810A10B789F
:10C990000E4683469AF805109AF8B100B51850EA89
:10C9A000010283B006EB030403D0002003B0BDE80E
:10C9B000F08FB2788AF80020A54217D9F25CA3184C
:10C9C0009D4213D30AF1B8080AF1B0070AF10C0925
:10C9D0006278042A0AD00B2A08D0052A0BD09D427F
:10C9E0001C4603D91A7813449D42F1D2A01B80B291
:10C9F00003B0BDE8F08F2146584602F0E1F8002868
:10CA000041D0A378DB0905D19AF8B1300BB3227875
:10CA1000A318E4E79AF80530002BF8D148460193B3
:10CA200001F060F9A2788AF80520A2889AF804C07B
:10CA3000019B1849C2F30A02A2F50072B2FA82F20F
:10CA4000520962F3410C18468AF804C003F0EAFF69
:10CA5000DDE7404601F046F9A3788AF8B130A388B3
:10CA60009AF8B020C3F30A03A3F50073B3FA83F373
:10CA70005B0963F34102394658468AF8B02004F056
:10CA80001FF80028C3D1044B1B68DB078DD500BEFF
:10CA90008CE700BFF88A0020F0ED00E0F48A002067
:10CAA00030B51D4C94F8B1208A4283B0054618D1A8
:10CAB000B4F8BC205AB99AB218490020FFF70EFF0B
:10CAC0001749284603F0FCFF012003B030BD9AB29D
:10CAD000D4F8B410019204F1B80001F061F8019AA1
